S01E000053455034452D54776F2D706C617965722D736E616B652E7372656345
S11300000C943E000C945B000C945B000C945B001D
S11300100C945B000C945B000C945B000C945B00F0
S11300200C948E080C945B000C945B000C945B00A5
S11300300C945B000C947A140C945B000C945B009D
S11300400C94660E0C945B000C945B000C945B00A7
S11300500C9482150C94DB150C945B000C945B00DF
S11300600C945B000C945B000C945B000C945B00A0
S11300700C9436160C948F160C945B0011241FBE3E
S1130080CFEFD8E0DEBFCDBF11E0A0E0B1E0EEEBF2
S1130090FEE402C005900D92AE39B107D9F728E00D
S11300A0AEE9B1E001C01D92A234B207E1F70E94AB
S11300B0A6080C945D270C940000CF93DF93CDB772
S11300C0DEB72C970FB6F894DEBF0FBECDBF98876E
S11300D08F8369875B874A872C878A859B859A8368
S11300E089838C85882F90E02A853B85820F931F16
S11300F09C838B838985882F90E02F813885820F9C
S1130100931F9E838D8369C08F819885FC018081B4
S1130110882F90E0009721F08F3F910541F14AC06C
S11301208B819C819C01215031098A859B85821792
S11301309307D8F48A859B859C012F5F3F4F3B87AB
S11301402A872F813885F9012081FC0120838A8543
S11301509B859C012F5F3F4F3B872A872F813885E2
S1130160F9012081FC01208333C080E04DC08B81E4
S11301709C819C01215031098A859B8582179307B4
S1130180B8F48A859B859C012F5F3F4F3B872A8764
S1130190FC0110828A859B859C012F5F3F4F3B8722
S11301A02A872F813885F9012081FC01208310C022
S11301B080E02AC08A859B859C012F5F3F4F3B8747
S11301C02A872F813885F9012081FC0120830000D2
S11301D08F819885019698878F832F8138858D81AB
S11301E09E812817390740F42A853B858B819C81A1
S11301F02817390708F488CF2A853B8589819A8195
S1130200A901481B590BCA012C960FB6F894DEBFFE
S11302100FBECDBFDF91CF910895CF93DF93CDB7BC
S1130220DEB72C970FB6F894DEBF0FBECDBF98870C
S11302308F8369875B874A872C878F8198859A8308
S113024089838985882F90E02F813885820F931FB9
S11302509C838B838C85882F90E02A853B85820F35
S1130260931F9E838D8339C08A859B85FC01808181
S1130270882309F58A859B8501969B878A878A85C9
S11302809B85FC018081882331F08A859B85FC0154
S113029080818F3F71F48F8198859C012F5F3F4F40
S11302A038872F832A853B85F9012081FC0120832F
S11302B00FC080E029C08F8198859C012F5F3F4F3C
S11302C038872F832A853B85F9012081FC0120830F
S11302D08A859B8501969B878A872F8138858B81A8
S11302E09C812817390740F42A853B858D819E819E
S11302F02817390708F4B8CF2F81388589819A8166
S1130300A901481B590BCA012C960FB6F894DEBFFD
S11303100FBECDBFDF91CF910895CF93DF9300D06F
S1130320CDB7DEB789836A838981882F90E0880FEF
S1130330991F82569E4FFC0180819181FC0181812D
S1130340882F90E08330910561F0843091051CF48E
S1130350019739F031C084309105B9F00697A9F0BE
S11303602BC08A81843019F08A81863011F5898105
S1130370882F90E0880F991F82569E4FFC01808140
S113038091812A81FC01218314C08A81833019F070
S11303908A81813081F48981882F90E0880F991FA8
S11303A082569E4FFC01808191812A81FC01218328
S11303B002C0000001C0000000000F900F90DF9108
S11303C0CF910895CF93DF93CDB7DEB79091A2017B
S11303D081E08927882379F081E08093A20184E277
S11303E091E00E941E028EE991E00E94AB0480E03D
S11303F091E00E948E030000DF91CF910895CF9386
S1130400DF93CDB7DEB71092A2010000DF91CF9148
S11304100895CF93DF9300D0CDB7DEB789836A8385
S11304208A81880F982F990F990F990F981B8981AA
S1130430890F0F900F90DF91CF910895CF93DF93A1
S113044000D0CDB7DEB79A83898389819A810E94CF
S1130450542721E0280F89819A81622F0E94310D4F
S113046000000F900F90DF91CF9108950F931F9389
S1130470CF93DF93CDB7DEB72A970FB6F894DEBFDC
S11304800FBECDBF9A87898763E070E080E090E07B
S11304900E94392289859A859C838B8380914108A7
S11304A080930001198227C08981082F10E00E94DF
S11304B065049C01C801880F991F82569E4FFC0158
S11304C0318320838981882F90E0880F991F825679
S11304D09E4FFC0180819181892B51F48981882F61
S11304E090E0880F991F82569E4FFC011182108262
S11304F089818F5F898389818230B0F20E9435219E
S113050098878F838B819C810E941D058EE991E0E1
S11305100E94AB0480E091E00E948E0320910001D0
S11305208B819C81422F6EE971E00E947C0680E001
S113053090E00E94ED248D83CE01079662E370E083
S11305400E94BF1F8091A201882389F38B819C8123
S11305500E941D051A8299C080910001482F6EE9FE
S113056071E08A810E9440058E838E818F3F09F459
S113057089C0809100019E81981709F058C08A8132
S1130580882F90E0880F991F82569E4FFC0180812E
S11305909181FC0123818A81882F90E0880F991F23
S11305A082569E4FFC0180819181FC01808D281729
S11305B078F48A81882F90E0880F991F82569E4F85
S11305C0FC0180819181FC0123812F5FFC01238345
S11305D08A81882F90E0880F991F82569E4FFC01D4
S11305E0808191812A81222F30E0220F331F2256ED
S11305F03E4FF90120813181F90122812F5FFC01F5
S1130600228380E091E00E948E038A81882F90E00B
S1130610009719F0019731F00AC089E391E00E9434
S11306201E0205C08CE491E00E941E0200008E812F
S1130630282F30E08A81882F90E0880F991F8256F6
S11306409E4FFC0180819181B9010E9453036EE9A0
S113065071E08A810E94D7038823A1F08A81882FC0
S113066090E0009719F0019731F00AC08FE591E00E
S11306700E941E0205C08DE691E00E941E02000049
S11306800E94FF018A818F5F8A838A81823008F405
S113069063CF209100018B819C81422F6EE971E030
S11306A00E947C0644CFCF93DF9300D000D0CDB717
S11306B0DEB79B838A836C838A819B81FC0183815F
S11306C0825089831BC08981082E000C990B0196E6
S11306D02981022E000C330B4A815B81240F351FC4
S11306E02C5F3F4FF90140812A813B81820F931F88
S11306F00496FC0140838981815089838981882300
S113070014F78A819B812C81FC01248300000F90C3
S11307100F900F900F90DF91CF910895CF93DF93B7
S113072000D01F92CDB7DEB79B838A838A819B81D9
S1130730FC01808189838981882311F48FEF898367
S11307408981882F90E09695982F8827979587958B
S1130750982F8981892789838981829586958770D5
S11307609981892789838981882F90E0880F991F2F
S1130770880F991F880F991F982F8981892789834A
S1130780898191E08C3808F490E02CE8929F902DB8
S11307901124891B89838A819B812981FC012083FF
S11307A000000F900F900F90DF91CF910895CF9399
S11307B0DF9300D000D000D0CDB7DEB78C837E832A
S11307C06D838C81882F90E0880F991F2D813E8145
S11307D0820F931FFC0180819181FC0184818B83B2
S11307E081E089831CC08C81882F90E0880F991F39
S11307F02D813E81820F931FFC01208131818981EB
S1130800882F90E0820F931F0496FC0190818B81C6
S1130810981711F481E050C089818F5F89838C819E
S1130820882F90E0880F991F2D813E81820F931F9E
S1130830FC0180819181FC0193818981891798F25F
S11308401A8222C08C81882F90E021E030E0A90137
S1130850481B590BCA01880F991F2D813E81820FB5
S1130860931FFC01208131818A81882F90E0820FBF
S1130870931F0496FC0190818B81981711F481E0F9
S11308801BC08A818F5F8A838C81882F90E021E04E
S113089030E0A901481B590BCA01880F991F2D810B
S11308A03E81820F931FFC0180819181FC01938121
S11308B08A81891738F280E026960FB6F894DEBF55
S11308C00FBECDBFDF91CF910895CF93DF9300D0BA
S11308D01F92CDB7DEB789E190E00E94EA169B83B0
S11308E08A838A819B81892B19F48A819B812DC0FB
S11308F08A819B81FC0110828A819B81FC01118287
S11309008A819B81FC0112828A819B81FC01138272
S11309108A819B8124E1FC01208F19820DC0898189
S1130920882F90E02A813B81820F931F0496FC015B
S1130930108289818F5F89838A819B81FC01908DDC
S11309408981891760F38A819B810F900F900F90A2
S1130950DF91CF9108950F931F93CF93DF9300D02E
S1130960CDB7DEB79A83898389819A81FC0180811E
S1130970918126E0FC01218389819A81FC01808197
S1130980918124E1FC01238389819A81FC01808186
S1130990918121E0FC01228389819A81FC010081FB
S11309A0118161E081E00E940902F8018483898158
S11309B09A81FC010081118161E080E00E940902BA
S11309C0F801858389819A810296FC018081918155
S11309D024E0FC01218389819A810296FC018081B3
S11309E0918124E1FC01238389819A810296FC018F
S11309F08081918121E0FC01228389819A81029680
S1130A00FC010081118168E08CE00E940902F80178
S1130A10848389819A810296FC010081118168E0B6
S1130A208DE00E940902F801858300000F900F9069
S1130A30DF91CF911F910F910895CF93DF9300D051
S1130A401F92CDB7DEB79B838A8319820FC0898139
S1130A50882F90E0880F991F2A813B81820F931F72
S1130A60FC011182108289818F5F898389818E3094
S1130A7070F300000F900F900F90DF91CF910895C5
S1130A80CF93DF9300D000D01F92CDB7DEB78A8317
S1130A907C836B834D838A81882F90E0880F991F14
S1130AA02B813C81820F931FFC01808191812A81DB
S1130AB0222F30E0220F331F4B815C81240F351F1E
S1130AC0F90120813181F90160812A81222F30E0EE
S1130AD0220F331F4B815C81240F351FF9012081C4
S1130AE03181F9012281260FFC0120838A81882F1C
S1130AF090E0880F991F2B813C81820F931FFC018A
S1130B0080819181FC0190818DEC989F812D11242D
S1130B1082958F7089838981882309F443C08A81EF
S1130B20882F90E0880F991F2B813C81820F931F9F
S1130B30FC01808191812A81222F30E0220F331F12
S1130B404B815C81240F351FF90120813181F9012A
S1130B50308149812CEE429F202D1124230FFC016A
S1130B6020838A81882F90E0880F991F2B813C81F4
S1130B70820F931FFC0180819181FC0151818A8144
S1130B80882F90E0880F991F2B813C81820F931F3F
S1130B90FC0180819181FC0184814981652F0E943F
S1130BA0DB0501C08FEF0F900F900F900F900F9007
S1130BB0DF91CF9108951F93CF93DF9300D000D09E
S1130BC0CDB7DEB78A836B834C838A810E945D062E
S1130BD089838B81882F90E08330910559F184308B
S1130BE091051CF4019731F14DC08430910519F041
S1130BF0069709F047C09A818981192F181B8981AA
S1130C00282F30E08B81882F90E0BC01655071095A
S1130C108C81482F50E0649FC001659F900D749FA4
S1130C20900D1124820F931F6EE070E00E943B0729
S1130C30810F28C08A81282F30E08B81882F90E093
S1130C40AC01425051098C81882F90E0489FB0013B
S1130C50499F700D589F700D1124CB01880F991F67
S1130C60AC01440F551F440F551F440F551FBA01C3
S1130C70681B790BCB01820F931F6CE870E00E9414
S1130C803B0700C00F900F900F900F90DF91CF9112
S1130C901F910895CF93DF931F92CDB7DEB7898359
S1130CA08981982F969583E9989F812D11248695A3
S1130CB086950F90DF91CF910895CF93DF931F9284
S1130CC0CDB7DEB789832981922F969583E9989FC2
S1130CD0812D112486958695982F892F880F982F1A
S1130CE0892F880F880F880F891B922F981B892FB3
S1130CF00F90DF91CF9108950F931F93CF93DF93BC
S1130D00CDB7DEB727970FB6F894DEBF0FBECDBFC1
S1130D109C838B837E836D834F838F810E944A06DD
S1130D20882F90E029E030E0281B390B81E090E027
S1130D308C0102C0000F111F2A95E2F78F810E94D7
S1130D405D06482F842F90E0880F991F2B813C81EA
S1130D50820F931F242F30E0220F331F4B815C81BD
S1130D60240F351FF90120813181A801242B352B53
S1130D70FC013183208319826EC01A8257C0898195
S1130D80882F90E0880F991F2D813E81820F931F39
S1130D90FC01208131818A81882F90E0820F931F8A
S1130DA00496FC0180810E944A06882F90E029E085
S1130DB030E0281B390B81E090E08C0102C0000F69
S1130DC0111F2A95E2F78981882F90E0880F991FD7
S1130DD02D813E81820F931FFC01208131818A8104
S1130DE0882F90E0820F931F0496FC0180810E945B
S1130DF05D06482F842F90E0880F991F2B813C813A
S1130E00820F931F242F30E0220F331F4B815C810C
S1130E10240F351FF90120813181A801242B352BA2
S1130E20FC01318320838A818F5F8A838981882FA3
S1130E3090E0880F991F2D813E81820F931FFC0142
S1130E4080819181FC0193818A81891708F497CF6D
S1130E5089818F5F89838981823008F48ECF000075
S1130E6027960FB6F894DEBF0FBECDBFDF91CF91AA
S1130E701F910F910895CF93DF9300D000D000D03D
S1130E80CDB7DEB79C838B837E836D838B819C81FE
S1130E902D813E81B9010E94FA269A838983898132
S1130EA09A8199233CF429813A818D819E81820F14
S1130EB0931F02C089819A8126960FB6F894DEBFEB
S1130EC00FBECDBFDF91CF910895CF93DF93CDB700
S1130ED0DEB786E290E0FC018081282F207886E24C
S1130EE090E0FC0180818270282B86E290E0FC0176
S1130EF080818074282B86E290E0FC0180818170DF
S1130F00282B89E290E0FC0180818870822BDF919C
S1130F10CF910895CF93DF9300D000D0CDB7DEB743
S1130F209C838B830E9435219A83898362E370E0DA
S1130F30CE0101960E94BF1F0E946507882324F0FA
S1130F4064E080E00E948D010E946507882F90E094
S1130F5082709927892B21F466E080E00E948D013C
S1130F600E946507882F90E080749927892B21F4CB
S1130F7063E080E00E948D010E946507882F90E065
S1130F8081709927892B21F461E080E00E948D0112
S1130F900E946507882F90E088709927892B31F685
S1130FA00E94E201C3CFCF93DF93CDB7DEB7000039
S1130FB0DF91CF910895CF93DF93CDB7DEB78BE266
S1130FC090E02BE230E0F90120812460FC012083D1
S1130FD00000DF91CF910895CF93DF93CDB7DEB7B3
S1130FE08BE290E02BE230E0F90120812062FC01E9
S1130FF020838BE290E02BE230E0F90120812F7D09
S1131000FC0120838BE290E02BE230E0F9012081A7
S11310102061FC0120838BE290E02BE230E0F901B7
S113102020812F7EFC0120838BE290E02BE230E0D4
S1131030F90120812B7FFC0120830000DF91CF91F7
S11310400895CF93DF9300D0CDB7DEB79A83898319
S113105082E290E029812095FC01208385E290E0E2
S113106025E230E0F90120812360FC01208385E240
S113107090E025E230E0F901408129813A81232F73
S11310803327237020952423FC01208300000F9034
S11310900F90DF91CF910895CF93DF93CDB7DEB753
S11310A08091A401882311F40E94DB078091A4019C
S11310B0882F90E0880F991F8F5F9E4FFC018081DD
S11310C091810E9421080E94EC078091A4018F5F06
S11310D08093A4018091A4018E3010F01092A40199
S11310E00000DF91CF910895CF93DF9300D000D01B
S11310F0CDB7DEB79A8389837C836B8300000F901E
S11311000F900F900F90DF91CF910895CF93DF93BD
S1131110CDB7DEB70000DF91CF9108951F920F92F3
S113112000905F000F9211248F93CF93DF93CDB77C
S1131130DEB781E08093A3010000DF91CF918F910E
S11311400F9000925F000F901F901895EF92FF92FE
S11311500F93CF93DF9300D01F92CDB7DEB7F894EF
S113116084E590E024E530E0F9012081277FFC014B
S1131170208380E690E020E630E0F90120812061C0
S1131180FC01208380E690E020E4FC012083789435
S113119005C0809141088F5F809341089091A3011D
S11311A081E089278823A9F7F8940E94AE0E8BE288
S11311B090E02BE230E0F90120812F7BFC012083B9
S11311C0E12CF12C02E020E030E04AEF50E06BE744
S11311D071E084EC9BE00E94E21D8983E12CF12CF8
S11311E004E020E030E047E850E066E871E08AE897
S11311F097E00E94E21D8A83E12CF12C03E021E0B8
S113120031E047E850E06FE871E086E392E00E9445
S1131210E21D8B838CE498E00E94330E78940E9444
S11312205C20FFCFCF93DF93CDB7DEB727970FB600
S1131230F894DEBF0FBECDBF9E838D836F8319826A
S11312401A8226C08A81882F90E02D813E81820FE8
S1131250931FFC0180819981892789831B8212C095
S11312608981881F8827881F8C838981880F8983B7
S11312708C81882321F0998187E0892789838B8158
S11312808F5F8B838B81883058F38A818F5F8A8349
S11312909A818F819817B0F2898127960FB6F894B6
S11312A0DEBF0FBECDBFDF91CF910895CF93DF9303
S11312B0CDB7DEB728970FB6F894DEBF0FBECDBF0B
S11312C09D838C836E8358874F838E81843010F482
S11312D080E041C08C819D81FC0180810E94B70A1D
S11312E0982F81E08927882311F080E034C08C8115
S11312F09D816E810E94DF0A89838C819D81698131
S11313000E94C60A982F81E08927882311F080E083
S113131022C08C819D81FC0181818A8383E08B833F
S113132099818B81F92FF81B8F2F6FEF680F8B81B9
S1131330882F90E02C813D81A901480F591F8C8191
S11313409D81262F6E810E940D01282F8F81988503
S1131350FC0120838A8128960FB6F894DEBF0FBE65
S1131360CDBFDF91CF910895CF93DF93CDB7DEB793
S11313702C970FB6F894DEBF0FBECDBF98878F832E
S113138069875B874A872C878F8198859B838A83AB
S11313908985882F90E00E94EA169D838C838C8136
S11313A09D81892B11F480E07FC01E828C85282FBB
S11313B0220F4C815D818A859B856C850E945D002E
S11313C08E838E81882309F46AC08985282F30E0B2
S11313D08E81882F90E004962817390708F45FC09F
S11313E08F8198859C012F5F3F4F38872F832FEF84
S11313F0FC0120838F8198859C012F5F3F4F3887A4
S11314002F8321E0FC0120838F8198859C012F5F2D
S11314103F4F38872F832E812C5FFC012083198254
S113142015C08F8198859C012F5F3F4F38872F838C
S11314302981222F30E04C815D81240F351FF90171
S11314402081FC01208389818F5F898399818E812A
S1131450981738F38C819D810E94DF172F8138857E
S11314608A819B81A901481B590BCA01282F8A81B3
S11314709B81622F0E941209282F8F819885FC017D
S113148020838F819885019698878F832F81388553
S11314908A819B81A901481B590BCA0105C08C8113
S11314A09D810E94DF1780E02C960FB6F894DEBF72
S11314B00FBECDBFDF91CF910895CF93DF9300D0BE
S11314C000D01F92CDB7DEB79C838B836D838B8155
S11314D09C819A8389838D81843008F43FC08B81F9
S11314E09C819C012F5F3F4F3C832B832FEFFC019A
S11314F020838B819C819C012F5F3F4F3C832B83F6
S113150022E0FC0120838B819C819C012F5F3F4F53
S11315103C832B8324E0FC0120832B813C81898143
S11315209A81A901481B590BCA01282F89819A81E4
S1131530622F0E941209282F8B819C81FC01208339
S11315408B819C8101969C838B832B813C81898137
S11315509A81A901481B590BCA0101C080E00F9070
S11315600F900F900F900F90DF91CF910895CF932C
S1131570DF931F92CDB7DEB7898381E099819F3FC6
S113158009F080E00F90DF91CF910895CF93DF931E
S113159000D01F92CDB7DEB79A8389836B8389818C
S11315A09A816B810E941209982F81E0992309F096
S11315B080E00F900F900F90DF91CF910895CF931B
S11315C0DF9300D01F92CDB7DEB79A8389836B83F4
S11315D08B81833010F480E016C089819A81FC01EC
S11315E080818F3F11F080E00EC089819A8101963D
S11315F09A83898389819A8101969A8389838981CF
S11316009A81FC0180810F900F900F90DF91CF9110
S11316100895CF93DF9300D01F92CDB7DEB79A839E
S113162089836B838B81833010F420E011C089811E
S11316309A8101969A83898389819A81FC018081A8
S1131640882F90E08270992721E0892B09F420E00B
S1131650822F0F900F900F90DF91CF910895CF9329
S1131660DF93CDB7DEB728970FB6F894DEBF0FBE71
S1131670CDBF9B838A837D836C834E8338872F837E
S11316808E81843008F06FC080E075C08F819885AA
S1131690FC018081882F90E02C813D81B901680F85
S11316A0791F8A819B8120E040E050E00E94061B64
S11316B0882311F480E05FC08F819885FC018081CC
S11316C0882361F48C819D81FC0180810E94B70A8A
S11316D0982F81E08927882309F045C08F81988558
S11316E0FC01808121E0280F8F819885FC012083F3
S11316F08F819885FC0180818330A8F18C819D8144
S113170063E00E94DF0A89839E818981981710F51E
S113171080E031C08F819885FC018081882F90E022
S11317202C813D81B901680F791F8A819B8120E05A
S113173040E050E00E94061B882311F480E01BC0A7
S11317408F819885FC01808121E0280F8F81988505
S1131750FC0120838F819885FC01908189819817F1
S1131760C8F281E008C08F819885FC0190818E8148
S1131770891708F08BCF28960FB6F894DEBF0FBEFA
S1131780CDBFDF91CF910895CF93DF93CDB7DEB76F
S1131790C157D1090FB6F894DEBF0FBECDBF9E016D
S11317A020593F4FF9019183808340E061E084E652
S11317B00E941D199093A8018093A70181E00E94C3
S11317C0D6199093AA018093A9018EE140E061E0CB
S11317D00E941D199093A6018093A5018091A501F3
S11317E09091A6010E94200ECE0188599F4FFC01C2
S11317F010820E9435219C01CE0187599F4FFC0124
S113180031832083CE0187599F4F62E370E00E94A9
S1131810BF1F8091A5019091A6019E0128593F4FB9
S1131820BE016C5F7F4F44E60E942F0B882309F4AE
S113183078C0CE0185599F4FFC0110829E01255925
S11318403F4FCE010496A90164E60E9456098A839B
S11318508A81823051F481E080931D011092AB01A2
S113186010920F021092120256C08A81813009F040
S11318704FC01B82CE0184599F4F64E00E945D0AD1
S11318808B838B818823B9F18091A9019091AA015E
S113189020E042E350E060E070E00E94061B8823F1
S11318A0F9F0198217C08981882F90E09E0124598C
S11318B03F4FB901680F791F8091A7019091A8014A
S11318C020E040E050E00E94F619882341F089812D
S11318D08F5F898399818B81981728F301C0000059
S11318E08091A9019091AA0120E040E050E060E0DD
S11318F070E00E94F619CE0185599F4FFC0180814A
S1131900282F30E0CE010496B9010E94B80D03C01F
S113191081E080931D011C82CE0188599F4FFC01F8
S1131920108280911D01882389F08091A7019091F4
S1131930A8012FE032E044E66BEA71E00E942F0B2D
S1131940882309F45FCF0E94CB0C5CCF0E94352121
S11319509C018091100290911102A901481B590B1E
S1131960CA018436910508F44DCF809112028F5F2D
S11319708093120280911202863018F40E94CB0CDC
S113198041CF81E080931D011092AB0110920F02B0
S11319901092120237CFCF93DF931F92CDB7DEB7E9
S11319A080910F02882339F1198213C08981882F0D
S11319B090E085559E4FFC0180810E949D0E8823F6
S11319C021F489818F5F898304C081E090E00E94C3
S11319D0392080910F029981981740F30E94352194
S11319E0909311028093100264E08BEA91E00E94CC
S11319F0090B80931D0100000F90DF91CF91089592
S1131A00CF93DF9300D000D01F92CDB7DEB79C8375
S1131A108B836D8319821A8217C08B819C81FC0190
S1131A2080818F3F31F08B819C81FC0180818823F0
S1131A3019F489818F5F89838B819C8101969C83B2
S1131A408B838A818F5F8A839A818D81981728F38B
S1131A5089810F900F900F900F900F90DF91CF918D
S1131A600895CF93DF93CDB7DEB727970FB6F894D9
S1131A70DEBF0FBECDBF9E838D836F838D819E811C
S1131A806F810E94000D982F990F8F81890F8C5FB1
S1131A9089838981853610F084E689838981882F3A
S1131AA090E00E94EA169C838B838B819C81892B16
S1131AB011F480E054C04D815E818B819C812F8123
S1131AC069810E94B40989838981882309F442C009
S1131AD08091A7019091A8010E94FC1B982F8981F5
S1131AE09817C0F18091A9019091AA0120E042E3E6
S1131AF050E060E070E00E94061B8823D1F01A8257
S1131B0014C08A81882F90E02B813C81B901680F31
S1131B10791F8091A7019091A80120E040E050E056
S1131B200E94F6198A818F5F8A839A818981981726
S1131B3040F38091A9019091AA0120E040E050E097
S1131B4060E070E00E94F6198B819C810E94DF178F
S1131B5081E005C08B819C810E94DF1780E027967D
S1131B600FB6F894DEBF0FBECDBFDF91CF910895BD
S1131B70CF93DF9300D01F92CDB7DEB79A838983CA
S1131B806B838B81813059F589819A81FC01808135
S1131B90853229F464E081E00E948D0120C08981AE
S1131BA09A81FC018081863229F463E081E00E94FD
S1131BB08D0115C089819A81FC018081873229F4C5
S1131BC066E081E00E948D010AC089819A81FC014E
S1131BD08081883221F461E081E00E948D0100005F
S1131BE00F900F900F90DF91CF910895CF93DF93D3
S1131BF000D000D0CDB7DEB79B838A836C838091FD
S1131C00150290911602892B99F019828091150280
S1131C1090911602BE016C5F7F4F20E0AE014F5FD2
S1131C205F4F0E94A71A8981882311F00E946013D4
S1131C3000000F900F900F900F90DF91CF910895B7
S1131C40CF93DF9300D0CDB7DEB79A8389838981A0
S1131C509A81909316028093150200000F900F90C2
S1131C60DF91CF910895CF93DF9300D0CDB7DEB746
S1131C709A83898389819A819093180280931702A9
S1131C8087E490E02AE0FC01208384E490E024E4EB
S1131C9030E0F90120812260FC0120838EE690E08F
S1131CA02EE630E0F90120812260FC01208385E4E6
S1131CB090E025E430E0F90120812560FC012083D7
S1131CC000000F900F90DF91CF9108951F920F9213
S1131CD000905F000F9211242F933F934F935F93D3
S1131CE06F937F938F939F93AF93BF93EF93FF93E0
S1131CF0CF93DF93CDB7DEB780911702909118028E
S1131D00892B31F08091170290911802FC010995FA
S1131D100000DF91CF91FF91EF91BF91AF919F911F
S1131D208F917F916F915F914F913F912F910F9080
S1131D3000925F000F901F901895CF93DF931F922E
S1131D40CDB7DEB789838091130290911402698123
S1131D500E9458150F90DF91CF9108958F929F9212
S1131D60AF92BF92CF92DF92EF920F93CF93DF9314
S1131D70CDB7DEB789E192E00E94780F8CE392E060
S1131D800E94780F0F2EF6EF8F2EFDE09F2EF02D80
S1131D900F2EFCE3AF2EF2E0BF2EF02D0F2EF9E153
S1131DA0CF2EF2E0DF2EF02DE12C00E023E040E026
S1131DB052EC61E070E080E00E949714909314026A
S1131DC08093130287E290E027E230E0F90120815A
S1131DD02C73FC0120838AE290E02AE230E0F901CE
S1131DE02081277FFC01208388E290E028E230E014
S1131DF0F9012081236CFC0120838BE290E02BE22B
S1131E0030E0F90120812860FC0120838AE290E01F
S1131E102AE230E0F90120812467FC0120838BE26F
S1131E2090E02BE230E0F90120812064FC01208362
S1131E3081E290E0FC01808181E290E02FEFFC01DF
S1131E40208384E290E024E230E0F90120812360E1
S1131E50FC01208384E290E024E230E0F901208157
S1131E602C63FC0120830000DF91CF910F91EF9050
S1131E70DF90CF90BF90AF909F908F900895CF93B5
S1131E80DF931F92CDB7DEB7898385E290E025E228
S1131E9030E0F9012081237CFC01208385E290E07D
S1131EA025E230E0F9012081422F2981222F30E000
S1131EB0220F331F220F331F242BFC012083000029
S1131EC00F90DF91CF910895CF93DF931F92CDB7F9
S1131ED0DEB7898385E290E025E230E0F9012081D4
S1131EE0237CFC01208300000F90DF91CF910895A3
S1131EF0CF93DF9300D0CDB7DEB79A8389838981EE
S1131F009A81FC0110A289819A81FC0111A2898124
S1131F109A81FC0112A200000F900F90DF91CF91E3
S1131F200895CF93DF9300D000D0CDB7DEB79A8366
S1131F3089837C836B8389819A81FC0182A18823B4
S1131F4081F189819A81FC0181A1882F90E0298106
S1131F503A81820F931FFC0120818B819C81FC01BB
S1131F60208389819A81FC0181A1882F90E00196C8
S1131F708F719078992324F40197806E9F6F019656
S1131F80282F89819A81FC0121A389819A81FC01EE
S1131F9082A12FEF280F89819A81FC0122A380E07E
S1131FA001C081E00F900F900F900F90DF91CF91BF
S1131FB00895CF93DF9300D01F92CDB7DEB79A83F5
S1131FC089836B8389819A81FC0182A1803268F5BF
S1131FD089819A81FC0180A1882F90E029813A812E
S1131FE0820F931F2B81FC01208389819A81FC013C
S1131FF080A1882F90E001968F719078992324F422
S11320000197806E9F6F0196282F89819A81FC0128
S113201020A389819A81FC0182A121E0280F898172
S11320209A81FC0122A380E001C082E00F900F900E
S11320300F90DF91CF910895CF93DF9300D0CDB768
S1132040DEB79A83898389819A819C012D5F3F4FF2
S113205089819A81FC013283218389819A812FEFBE
S11320603FEFFC013483238389819A819C012D5F96
S11320703F4F89819A81FC013683258389819A8126
S11320809C012D5F3F4F89819A81FC013087278312
S113209089819A81FC01108200000F900F90DF91DA
S11320A0CF910895CF93DF9300D0CDB7DEB79A8355
S11320B0898389819A81FC011186108600000F9022
S11320C00F90DF91CF910895CF93DF9300D000D08C
S11320D000D0CDB7DEB79C838B837E836D838B81E9
S11320E09C81FC01818192819A8389838D819E8167
S11320F029813A81FC013383228389819A81FC01FD
S1132100248135818D819E81FC01358324838981DD
S11321109A81FC01848195812D813E81FC01338368
S1132120228389819A812D813E81FC013583248318
S11321308D819E812B813C81FC01318720878B819D
S11321409C81FC01808121E0280F8B819C81FC0112
S11321502083000026960FB6F894DEBF0FBECDBFD5
S1132160DF91CF910895CF93DF93CDB7DEB7289752
S11321700FB6F894DEBF0FBECDBF9E838D837887E4
S11321806F838F819885FC01808191819C838B83EF
S11321908B819C81019641F48D819E81FC01878114
S11321A090859A8389831AC08D819E8103969A8330
S11321B0898307C089819A81FC01828193819A83F2
S11321C0898389819A81FC0182819381FC01208128
S11321D031818B819C818217930760F789819A8171
S11321E0FC01228133818F819885FC013383228312
S11321F08F819885FC01828193812F813885FC0130
S1132200358324838F81988529813A81FC01358324
S1132210248389819A812F813885FC013383228329
S11322208F8198852D813E81FC01318720878D81A6
S11322309E81FC01808121E0280F8D819E81FC011B
S11322402083000028960FB6F894DEBF0FBECDBFE2
S1132250DF91CF910895CF93DF9300D000D0CDB715
S1132260DEB79C838B838B819C81FC018085918567
S11322709A8389838B819C81FC01828193812B8148
S11322803C81F90124813581FC01358324838B81D0
S11322909C81FC01848195812B813C81F9012281FF
S11322A03381FC013383228389819A81FC0121815A
S11322B032818B819C812817390751F48B819C8151
S11322C0FC012481358189819A81FC013283218337
S11322D08B819C81FC011186108689819A81FC0185
S11322E080812FEF280F89819A81FC0120838981C5
S11322F09A81FC0180810F900F900F900F90DF91D5
S1132300CF910895CF93DF93CDB7DEB728970FB65B
S1132310F894DEBF0FBECDBF9C838B837E836D8319
S113232058874F838B819C8121E1FC0120838B8121
S11323309C8101979C838B838B819C8122E2FC018D
S113234020838B819C8101979C838B838B819C81CF
S113235023E3FC0120838B819C8101979C838B83E5
S11323608D819E819A83898329818B819C81FC0143
S113237020838B819C8101979C838B8389819A81A3
S1132380892F99279A83898329818B819C81FC01D8
S113239020838B819C8101979C838B838B819C817F
S11323A0FC0110828B819C8101979C838B838B81A0
S11323B09C8120E8FC0120838B819C8101979C8374
S11323C08B838B819C81FC0110828B819C81019782
S11323D09C838B838B819C8122E0FC0120838B81F5
S11323E09C8101979C838B838B819C8123E0FC01DE
S11323F020838B819C8101979C838B838B819C811F
S113240024E0FC0120838B819C8101979C838B8336
S11324108B819C8125E0FC0120838B819C81019729
S11324209C838B838B819C8126E0FC0120838B81A0
S11324309C8101979C838B838B819C8127E0FC0189
S113244020838B819C8101979C838B838B819C81CE
S113245028E0FC0120838B819C8101979C838B83E2
S11324608B819C8129E0FC0120838B819C810197D5
S11324709C838B838B819C8120E1FC0120838B8155
S11324809C8101979C838B838B819C8121E1FC013E
S113249020838B819C8101979C838B838B819C817E
S11324A022E1FC0120838B819C8101979C838B8397
S11324B08B819C8123E1FC0120838B819C8101978A
S11324C09C838B838B819C8124E1FC0120838B8101
S11324D09C8101979C838B838B819C8125E1FC01EA
S11324E020838B819C8101979C838B838B819C812E
S11324F026E1FC0120838B819C8101979C838B8343
S11325008B819C8127E1FC0120838B819C81019735
S11325109C838B838B819C8128E1FC0120838B81AC
S11325209C8101979C838B838B819C8129E1FC0195
S113253020838B819C8101979C838B838B819C81DD
S113254020E2FC0120838B819C8101979C838B83F7
S11325508B819C8121E2FC0120838B819C810197EA
S11325609C838B838B819C8122E2FC0120838B8161
S11325709C8101979C838B838B819C8123E2FC014A
S113258020838B819C8101979C838B838F81988589
S11325909A83898329818B819C81FC0120838B818F
S11325A09C8101979C838B8389819A81892F9927A8
S11325B09A83898329818B819C81FC0120838B816F
S11325C09C8101979C838B838B819C8126E2FC01F7
S11325D020838B819C8101979C838B838B819C813D
S11325E027E2FC0120838B819C8101979C838B8350
S11325F08B819C8128E2FC0120838B819C81019743
S11326009C838B838B819C8129E2FC0120838B81B9
S11326109C8101979C838B838B819C8120E3FC01AB
S113262020838B819C8101979C838B838B819C81EC
S113263021E3FC0120838B819C8101979C838B8304
S11326408B819C8128960FB6F894DEBF0FBECDBF58
S1132650DF91CF910895CF93DF93CDB7DEB70E947A
S11326601814A091E407B091E507CD91CDBFDD9199
S1132670DEBFFF91EF91DF91CF91BF91AF919F9119
S11326808F917F916F915F914F913F912F911F9106
S11326900F91FF90EF90DF90CF90BF90AF909F90FD
S11326A08F907F906F905F904F903F902F901F90EE
S11326B00F900FBE0F90089581E0DF91CF910895A0
S11326C00F920FB6F8940F921F9211242F923F92FB
S11326D04F925F926F927F928F929F92AF92BF922E
S11326E0CF92DF92EF92FF920F931F932F933F931A
S11326F04F935F936F937F938F939F93AF93BF9306
S1132700CF93DF93EF93FF93A091E407B091E50794
S11327100DB60D920EB60D920E946922A091E407A7
S1132720B091E507CD91CDBFDD91DEBFFF91EF9173
S1132730DF91CF91BF91AF919F918F917F916F91D5
S11327405F914F913F912F911F910F91FF90EF90C7
S1132750DF90CF90BF90AF909F908F907F906F90BD
S11327605F904F903F902F901F900F900FBE0F904F
S1132770089500000F920FB6F8940F921F9211243F
S11327802F923F924F925F926F927F928F929F927D
S1132790AF92BF92CF92DF92EF92FF920F931F936B
S11327A02F933F934F935F936F937F938F939F9355
S11327B0AF93BF93CF93DF93EF93FF93A091E4077D
S11327C0B091E5070DB60D920EB60D920E944C2104
S11327D0882311F00E946922A091E407B091E507D3
S11327E0CD91CDBFDD91DEBFFF91EF91DF91CF9110
S11327F0BF91AF919F918F917F916F915F914F9115
S11328003F912F911F910F91FF90EF90DF90CF9008
S1132810BF90AF909F908F907F906F905F904F90FC
S11328203F902F901F900F900FBE0F9008950000BF
S1132830CF93DF9300D000D000D0CDB7DEB789E9C5
S113284099E3A0E0B0E089839A83AB83BC83898158
S11328509A81AB81BC81689415F8B695A795979534
S113286087951694D1F789839A83AB83BC83898136
S11328709A81AB81BC810197A109B10989839A83AB
S1132880AB83BC8389818D8389819A81AB81BC812F
S1132890892F9A2FAB2FBB2789839A83AB83BC8361
S11328A089818E8389E890E02E81FC01208388E869
S11328B090E02D81FC0120838BE08D8381E890E002
S11328C02D81FC0120838FE690E0FC0180818D83C3
S11328D08D8182608D838FE690E02D81FC012083C1
S11328E0000026960FB6F894DEBF0FBECDBFDF9171
S11328F0CF9108950E94BA1318950000CF93DF93E7
S113290000D0CDB7DEB79A83898389819A810597F0
S113291029813A8125503109F90120812062FC0185
S1132920208300000F900F90DF91CF9108958F9234
S11329309F92AF92BF92CF92DF92EF920F931F9329
S1132940CF93DF93CDB7DEB761970FB6F894DEBFB0
S11329500FBECDBF8C834D835E836F8378872987B9
S11329600A87EB86DD86CC86BF86AE86998A888AFE
S113297088E090E00E94EA169A8389838C81882FEC
S113298090E0880F991F815A9D4F29813A81FC015B
S1132990318320838C81882F90E0880F991F825E79
S11329A09E4FFC012081318189819A81FC01318310
S11329B0208389819A812E853F85FC01338322837C
S11329C089819A812C853D85FC0135832483898105
S11329D09A8128893989FC01378326838FE590E021
S11329E0FC0180818B83F89489819A81FC01808128
S11329F09181069729813A81F901208131812650FC
S1132A003109F90120812260FC01208389819A81A6
S1132A10FC01808191818C01025011098D819E817C
S1132A20AF81B885880F991FAA1FBB1F880F991FF4
S1132A30AA1FBB1F880F991FAA1FBB1F9C01AD01B2
S1132A4080E090E0A1EEB0E0BC01CD010E940E2731
S1132A50DA01C9018150F801808389819A81FC01DE
S1132A6080819181059728E9FC01208389819A81DD
S1132A70FC0180819181049726E0FC0120838FE58D
S1132A8090E02B81FC01208389819A8161960FB6A5
S1132A90F894DEBF0FBECDBFDF91CF911F910F9190
S1132AA0EF90DF90CF90BF90AF909F908F9008955C
S1132AB0CF93DF9300D01F92CDB7DEB79A8389837B
S1132AC06B8389819A81FC0182819381892B99F09E
S1132AD089819A81FC01828193816B810E94D90F43
S1132AE0882349F489819A81FC01808191810E9423
S1132AF07E1480E001C082E00F900F900F90DF9170
S1132B00CF9108951F920F9200905F000F921124AD
S1132B102F933F934F935F936F937F938F939F93E1
S1132B20AF93BF93EF93FF93CF93DF931F92CDB7F0
S1132B30DEB780915F0290916002892B31F186ECBF
S1132B4090E0FC018081898380915F029091600212
S1132B50FC018481958169810E94D90F80915F0273
S1132B6090916002FC0186819781892B71F080919C
S1132B705F0290916002FC012681378180915F029F
S1132B80909160026981F901099500000F90DF912D
S1132B90CF91FF91EF91BF91AF919F918F917F91D1
S1132BA06F915F914F913F912F910F9000925F0031
S1132BB00F901F9018951F920F9200905F000F9234
S1132BC011242F933F934F935F936F937F938F932E
S1132BD09F93AF93BF93EF93FF93CF93DF931F9292
S1132BE0CDB7DEB780915F0290916002892BF9F036
S1132BF080915F0290916002FC01828193819E0129
S1132C002F5F3F4FB9010E94910F882331F486EC66
S1132C1090E02981FC01208313C081EC90E021EC39
S1132C2030E0F90120812F7DFC01208309C081EC73
S1132C3090E021EC30E0F90120812F7DFC0120831C
S1132C4000000F90DF91CF91FF91EF91BF91AF9171
S1132C509F918F917F916F915F914F913F912F91B0
S1132C600F9000925F000F901F9018951F920F9283
S1132C7000905F000F9211242F933F934F935F9323
S1132C806F937F938F939F93AF93BF93EF93FF9330
S1132C90CF93DF931F92CDB7DEB7809161029091FD
S1132CA06202892B31F18EEC90E0FC0180818983F2
S1132CB08091610290916202FC0184819581698115
S1132CC00E94D90F8091610290916202FC01868179
S1132CD09781892B71F08091610290916202FC01CD
S1132CE02681378180916102909162026981F901A4
S1132CF0099500000F90DF91CF91FF91EF91BF9163
S1132D00AF919F918F917F916F915F914F913F917F
S1132D102F910F9000925F000F901F9018951F92B3
S1132D200F9200905F000F9211242F933F934F93C3
S1132D305F936F937F938F939F93AF93BF93EF931F
S1132D40FF93CF93DF931F92CDB7DEB780916102DB
S1132D5090916202892BF9F0809161029091620254
S1132D60FC01828193819E012F5F3F4FB9010E9434
S1132D70910F882331F48EEC90E02981FC012083AB
S1132D8013C089EC90E029EC30E0F90120812F7D1B
S1132D90FC01208309C089EC90E029EC30E0F901C2
S1132DA020812F7DFC01208300000F90DF91CF91C3
S1132DB0FF91EF91BF91AF919F918F917F916F910F
S1132DC05F914F913F912F910F9000925F000F9070
S1132DD01F901895CF93DF93CDB7DEB72E970FB61C
S1132DE0F894DEBF0FBECDBF9E878D871E821D82E5
S1132DF00E9491208091E307882329F40E945118AE
S1132E0081E08093E3078D859E85892B41F084E0E2
S1132E1090E02D853E85820F931F9E878D878D853B
S1132E209E85892B09F4B8C08D859E85873795408A
S1132E3008F0B2C08BED97E09C838B838091DB0715
S1132E409091DC079A8389830BC089819A819C8342
S1132E508B8389819A81FC01808191819A83898302
S1132E6089819A81FC01228133818D859E85281771
S1132E70390738F489819A81FC0180819181892BF9
S1132E8021F789819A818F5D974009F485C08B81F0
S1132E909C81FC012081318184E090E0820F931FAA
S1132EA09E838D8389819A81FC01208131818B816C
S1132EB09C81FC013183208389819A81FC012281D8
S1132EC033818D859E85281B390B84E090E0880F23
S1132ED0991F8217930708F04EC029813A818D8586
S1132EE09E85820F931F9A87898789819A81FC0125
S1132EF0228133818D859E85281B390B89859A858E
S1132F00FC013383228389819A812D853E85FC01CE
S1132F103383228389859A85FC01828193819C87EE
S1132F208B878BED97E098878F8307C08F81988577
S1132F30FC018081918198878F838F819885FC0122
S1132F4080819181FC01228133818B859C852817A6
S1132F50390760F38F819885FC012081318189854F
S1132F609A85FC01318320838F81988529853A8550
S1132F70FC01318320832091220130912301898136
S1132F809A81FC0182819381A901481B590BCA01D2
S1132F9090932301809322010E949E208D819E8123
S1132FA0892B11F40E9486088D819E812E960FB67E
S1132FB0F894DEBF0FBECDBFDF91CF910895CF93BC
S1132FC0DF93CDB7DEB72A970FB6F894DEBF0FBEF6
S1132FD0CDBF9A87898789859A859C838B838985C8
S1132FE09A85892B09F453C084E090E091958195EA
S1132FF091092B813C81820F931F9C838B838B814E
S11330009C819E838D830E9491208D819E81FC01F1
S11330108281938198878F838BED97E09A8389834C
S113302007C089819A81FC01808191819A83898377
S113303089819A81FC0180819181FC012281338103
S11330408F8198852817390760F389819A81FC015B
S1133050208131818D819E81FC013183208389818E
S11330609A812D813E81FC01318320838D819E8153
S1133070FC01228133818091220190912301820FEE
S1133080931F90932301809322010E949E200000AD
S11330902A960FB6F894DEBF0FBECDBFDF91CF9155
S11330A00895CF93DF9300D000D0CDB7DEB784E688
S11330B092E09A83898389819A819093DC07809333
S11330C0DB071092DE071092DD0787E795E0909307
S11330D0E2078093E1071092E0071092DF078981ED
S11330E09A819C838B838B819C8127E735E0FC014B
S11330F0338322838B819C812FED37E0FC01318364
S1133100208300000F900F900F900F90DF91CF91CC
S11331100895CF93DF9300D000D01F92CDB7DEB7D0
S11331209C838B836D838B819C819A8389830FB667
S1133130F8940F9289819A81FC018081918129817F
S11331403A81F901238D422F50E029813A81F90116
S1133150248D222F30E0429FB001439F700D529F77
S1133160700D11249B01280F391F89819A81FC015C
S11331703383228389819A81FC01128E89819A8109
S1133180FC012081318189819A81FC01358324836A
S113319089819A81FC018081918129813A81F90197
S11331A0238D222F30E0A9014150510929813A8110
S11331B0F901248D222F30E0429FB001439F700D0E
S11331C0529F700D11249B01280F391F89819A8108
S11331D0FC013783268389819A812FEFFC01258F97
S11331E089819A812FEFFC01268F8D81882381F4B8
S11331F089819A81FC0180858823A1F089819A8143
S113320008960E943123882369F00E9460130AC043
S113321089819A8108960E941C1089819A8141961D
S11332200E941C100F900FBE81E00F900F900F9022
S11332300F900F90DF91CF9108950F931F93CF9329
S1133240DF93CDB7DEB729970FB6F894DEBF0FBE74
S1133250CDBF8F83688749878885882319F41A82AC
S113326019820FC08F81482F50E08885282F30E0C5
S1133270429FC001439F900D529F900D11249A8349
S1133280898389819A8181960E94EA169C838B8323
S11332908B819C81892B81F08B819C8181969E837B
S11332A08D832B813C818D819E8189012985AC018F
S11332B068858F810E9469198B819C8129960FB63C
S11332C0F894DEBF0FBECDBFDF91CF911F910F9158
S11332D008950F931F93CF93DF93CDB7DEB727974E
S11332E00FB6F894DEBF0FBECDBF89836A835C83BB
S11332F04B832D831F830E838A81882341F48E811F
S11333009F812E813F81FC013183208307C08E8100
S11333109F812B813C81FC01318320838E819F819D
S11333202981FC01238F8E819F812A81FC01248FB6
S11333308E819F8161E00E9489188E819F812D81F9
S1133340FC0120A3000027960FB6F894DEBF0FBE41
S1133350CDBFDF91CF911F910F910895CF93DF934C
S113336000D0CDB7DEB79A83898389819A81892B6E
S1133370B9F089819A81FC011382128289819A8130
S1133380FC011182108289819A81FC011682898153
S11333909A8120E040E050E060E070E00E94F6197D
S11333A000000F900F90DF91CF910895CF93DF939A
S11333B000D000D01F92CDB7DEB78D8381E0898322
S11333C01A824D816A8189810E941D199C838B8395
S11333D08B819C810E94AE198B819C810F900F90F0
S11333E00F900F900F90DF91CF910895CF93DF93BB
S11333F0CDB7DEB72E970FB6F894DEBF0FBECDBFA4
S1133400998788877B876A875D874C872E8719828F
S1133410888599859B838A830FB6F8940F928A8155
S11334209B81FC01228D8A819B81FC01838D28175D
S113343018F08E85823011F52A853B858A819B811F
S11334404E85B9010E94231C8C838A819B81FC01D7
S11334508189882351F08A819B8141960E9431237E
S1133460882341F00E94601305C08C81882311F0E9
S11334700E9460130F900FBE81E060C08C859D8513
S1133480892B21F40F900FBE80E058C089818823D6
S113349031F4CE0105960E949E2381E089830F902A
S11334A00FBE0E9491200FB6F8940F928A819B81DF
S11334B0FC01858D8F3F21F48A819B81FC01158E4F
S11334C08A819B81FC01868D8F3F21F48A819B81B7
S11334D0FC01168E0F900FBE9E01245F3F4FCE015C
S11334E00596B9010E94BA23882309F58A819B8134
S11334F00E94C01D8823A1F02C853D858A819B8173
S11335000896B9010E940E238A819B810E94441D62
S11335100E949E20882309F07FCF0E9460137CCFF5
S11335208A819B810E94441D0E949E2075CF8A81BE
S11335309B810E94441D0E949E2080E02E960FB61F
S1133540F894DEBF0FBECDBFDF91CF910895CF9326
S1133550DF93CDB7DEB72C970FB6F894DEBF0FBE5E
S1133560CDBF9F838E83798768875B874A872C8743
S11335708E819F819B838A831C828A819B81FC012B
S1133580228D8A819B81FC01838D281718F08C85FC
S1133590823089F58A819B81FC01868D8D83288503
S11335A039858A819B814C85B9010E94231C8D81B8
S11335B08F3FB9F48A819B81FC0181898823C1F002
S11335C08A819B8141960E943123882389F08A85D0
S11335D09B85892B69F08A859B8521E0FC012083EA
S11335E007C08D818F5F282F8A819B81FC01268FE4
S11335F081E0898301C0198289812C960FB6F894E1
S1133600DEBF0FBECDBFDF91CF910895CF93DF937F
S1133610CDB7DEB760970FB6F894DEBF0FBECDBF4F
S11336209B878A877D876C875F874E87288B198263
S11336308A859B859B838A830FB6F8940F928A812F
S11336409B81FC01828D8C838C81882309F451C079
S11336508A819B81FC01868197819E838D832C8541
S11336603D858A819B81B9010E94F31C8889882346
S113367031F58C812FEF280F8A819B81FC01228FE9
S11336808A819B81FC0180819181892B41F40E9474
S113369078269C018A819B81FC01338322838A8161
S11336A09B81FC018085882301F18A819B81089696
S11336B00E9431238823C9F00E94601316C08A81B6
S11336C09B812D813E81FC01378326838A819B81E6
S11336D0FC018189882349F08A819B8141960E945B
S11336E03123882311F00E9460130F900FBE81E0F4
S11336F07AC08E859F85892B21F40F900FBE80E0C0
S113370072C08981882331F4CE0107960E949E23DA
S113371081E089830F900FBE0E9491200FB6F89428
S11337200F928A819B81FC01858D8F3F21F48A81D0
S11337309B81FC01158E8A819B81FC01868D8F3FC4
S113374021F48A819B81FC01168E0F900FBE9E018D
S1133750225F3F4FCE010796B9010E94BA23882306
S1133760A1F58A819B810E94A21D882339F18A8157
S11337709B81FC0180819181892B61F40FB6F894BF
S11337800F928A819B81FC01828193810E9463252F
S11337900F900FBE2E853F858A819B814196B9018A
S11337A00E940E238A819B810E94441D0E949E20B8
S11337B0882309F041CF0E9460133ECF8A819B8108
S11337C00E94441D0E949E2037CF8A819B810E94C3
S11337D0441D0E949E208A819B810E94A21D8823F1
S11337E009F42ACF80E060960FB6F894DEBF0FBECE
S11337F0CDBFDF91CF910895CF93DF9300D000D058
S11338001F92CDB7DEB79D838C838C819D819A8373
S113381089830FB6F8940F9289819A81FC01238DD4
S113382089819A81FC01828DF22FF81B8F2F8B8363
S11338300F900FBE8B810F900F900F900F900F90F1
S1133840DF91CF910895CF93DF93CDB7DEB727975C
S11338500FB6F894DEBF0FBECDBF9C838B837E83EF
S11338606D834F8319828B819C81FC01828D8A83B5
S11338708B819C81FC01848D8823B1F48B819C8194
S1133880FC0180819181892B09F09CC08B819C81F2
S1133890FC01828193810E94FB2589838B819C8119
S11338A0FC01138212828EC08F818823D9F58B810B
S11338B09C81FC01848D482F50E08B819C81FC010C
S11338C0848195812D813E81B9010E9444278B8199
S11338D09C81FC01248135818B819C81FC01848D38
S11338E0882F90E0280F391F8B819C81FC01358340
S11338F024838B819C81FC01248135818B819C8173
S1133900FC01828193812817390708F45BC08B81FD
S11339109C81FC01208131818B819C81FC01358358
S1133920248350C08B819C81FC01848D482F50E0FE
S11339308B819C81FC01868197812D813E81B90117
S11339400E9444278B819C81FC01268137818B81D5
S11339509C81FC01848D882F90E09195819591093B
S1133960280F391F8B819C81FC01378326838B812F
S11339709C81FC01268137818B819C81FC018081A3
S1133980918128173907A8F48B819C81FC0122813D
S113399033818B819C81FC01848D882F90E09195EB
S11339A081959109280F391F8B819C81FC013783F4
S11339B026838F81823031F48A81882319F08A81A9
S11339C081508A838A8121E0280F8B819C81FC01AC
S11339D0228F898127960FB6F894DEBF0FBECDBF24
S11339E0DF91CF910895CF93DF9300D000D0CDB76E
S11339F0DEB79A8389837C836B8389819A81FC01F6
S1133A00848D8823C9F189819A81FC0126813781BB
S1133A1089819A81FC01848D882F90E0280F391FB9
S1133A2089819A81FC013783268389819A81FC01EB
S1133A302681378189819A81FC01828193812817AB
S1133A40390750F089819A81FC0120813181898173
S1133A509A81FC013783268389819A81FC01848DB4
S1133A60482F50E089819A81FC01268137818B811E
S1133A709C81B9010E94442700000F900F900F9081
S1133A800F90DF91CF910895CF93DF9300D000D0B2
S1133A90CDB7DEB79C838B830FB6F8940F928B81DE
S1133AA09C81FC01868D898312C08B819C81FC01E1
S1133AB08189882381F08B819C8141960E943123E6
S1133AC0882311F00E94222489818150898389816D
S1133AD018165CF301C000008B819C812FEFFC0160
S1133AE0268F0F900FBE0FB6F8940F928B819C8196
S1133AF0FC01858D8A8312C08B819C81FC018085A9
S1133B00882381F08B819C8108960E94312388232D
S1133B1011F00E9422248A8181508A838A81181696
S1133B205CF301C000008B819C812FEFFC01258F89
S1133B300F900FBE00000F900F900F900F90DF9129
S1133B40CF910895CF93DF9300D01F92CDB7DEB706
S1133B509B838A830FB6F8940F928A819B81FC0120
S1133B60828D882319F481E0898301C019820F9022
S1133B700FBE89810F900F900F90DF91CF91089520
S1133B80CF93DF9300D01F92CDB7DEB79B838A8398
S1133B900FB6F8940F928A819B81FC01228D8A8151
S1133BA09B81FC01838D281719F481E0898301C06E
S1133BB019820F900FBE89810F900F900F90DF91A3
S1133BC0CF9108958F929F92AF92BF92CF92DF923E
S1133BD0EF92FF920F931F93CF93DF93CDB7DEB78E
S1133BE060970FB6F894DEBF0FBECDBF9F838E8360
S1133BF0798768875B874A873D872C870E87F88A91
S1133C00EF868A859B850E94EA169D838C838C812E
S1133C109D81892BB9F08CE290E00E94EA169A8388
S1133C20898389819A81892B41F089819A812C81A8
S1133C303D81FC01308F278B07C08C819D810E94C0
S1133C40DF1702C01A82198289819A81892B09F1AE
S1133C508A859B85CC01A0E0B0E009811A814F855B
S1133C6058892C853D8568857985EE81FF81812C75
S1133C70912C58016A01EE8489019C01AD01CF01A8
S1133C800E945F1E89819A810E943B1F81E08B8381
S1133C9002C08FEF8B838B8160960FB6F894DEBFE2
S1133CA00FBECDBFDF91CF911F910F91FF90EF9089
S1133CB0DF90CF90BF90AF909F908F9008958F9298
S1133CC09F92AF92BF92CF92DF92EF920F931F9386
S1133CD0CF93DF93CDB7DEB764970FB6F894DEBF0A
S1133CE00FBECDBF9D838C837F836E8328873987E6
S1133CF04A875B871D870C87EE86D88ACF86BA8A67
S1133D00A98A9C8A8B8A2885398589899A89FC01A4
S1133D108789908DA90165EA70E00E944D27898901
S1133D209A89FC012789308D888599850197820FAE
S1133D30931F9B838A83198221C08981882F90E0F5
S1133D402981222F30E04E815F81240F351FF90134
S1133D50408129893A89820F931F4996FC01408347
S1133D608981882F90E02E813F81820F931FFC016F
S1133D708081882339F089818F5F898389818830A4
S1133D80E0F201C0000089899A89FC0110A28E85A5
S1133D90843010F083E08E8789899A892E85FC010E
S1133DA0268B89899A892E85FC0123A389899A897E
S1133DB0FC0114A289899A8902960E945210898969
S1133DC09A890C960E94521089899A8929893A897C
S1133DD0FC01318720878E85882F90E024E030E035
S1133DE0281B390B89899A89FC013587248789899D
S1133DF09A8929893A89FC01338B228B89899A898A
S1133E00FC0116A215A289899A89FC0117A210A6A1
S1133E1011A612A689899A89FC0113A64C855D8591
S1133E202C813D818A819B81B9010E9482119C0170
S1133E3089899A89FC01318320838F859889892B0C
S1133E4039F08F85988929893A89FC013183208347
S1133E50000064960FB6F894DEBF0FBECDBFDF91AD
S1133E60CF911F910F91EF90DF90CF90BF90AF90C3
S1133E709F908F900895CF93DF9300D0CDB7DEB796
S1133E809A8389830FB6F8940F92809133088F5FD9
S1133E90809333088091E4079091E507892B69F4B6
S1133EA089819A819093E5078093E4078091330890
S1133EB08130C9F40E943F2416C0809137088823BA
S1133EC091F48091E4079091E507FC0126898981AA
S1133ED09A81FC018689821730F089819A819093B6
S1133EE0E5078093E40780913B088F5F80933B084C
S1133EF020913B0889819A81FC0121A389819A81BF
S1133F00FC01968980913608891730F489819A8159
S1133F10FC0186898093360889819A81AC014E5FC1
S1133F205F4F89819A81FC018689282F30E0C9017D
S1133F30880F991F880F991F880F991F820F931F4D
S1133F408A51984FBA010E9464100F900FBE80915D
S1133F503708882371F08091E4079091E507FC010C
S1133F60268989819A81FC018689281710F40E9488
S1133F70601300000F900F90DF91CF910895CF93BD
S1133F80DF93CDB7DEB72A970FB6F894DEBF0FBE26
S1133F90CDBF98878F837A87698719820E94912081
S1133FA080913408909135089B838A838F8198850A
S1133FB0FC012081318189859A85820F931F9D831D
S1133FC08C838F819885FC01208131818A819B813A
S1133FD082179307A0F48F819885FC012081318199
S1133FE08C819D8182179307E8F42C813D818A811D
S1133FF09B8182179307B0F481E0898313C08F817A
S11340009885FC01208131818C819D8182179307E1
S113401038F02C813D818A819B818217930710F4AB
S113402081E089838F8198852C813D81FC013183D6
S113403020838981882359F02C813D818A819B8149
S1134040A901481B590BCA0160E00E9492260E94F4
S11340509E208E838E81882311F40E9460130000B9
S11340602A960FB6F894DEBF0FBECDBFDF91CF9175
S11340700895CF93DF9300D01F92CDB7DEB79B8313
S11340808A8319828A819B81892B51F00E94912015
S11340908A819B8160E00E9492260E949E208983EF
S11340A08981882311F40E94601300000F900F90FF
S11340B00F90DF91CF910895EF92FF920F93CF93DA
S11340C0DF931F92CDB7DEB70F2EFEE3EF2EF8E09D
S11340D0FF2EF02D00E020E030E045E550E069E9F6
S11340E071E08DE294E20E94E21D8983898181302E
S11340F081F4F8948FEF9FEF90933D0880933C08F0
S113410081E08093370810923508109234080E9499
S11341102B1300000F90DF91CF910F91FF90EF9040
S11341200895CF93DF93CDB7DEB7809140088F5FBA
S1134130809340080000DF91CF910895CF93DF93DF
S113414000D000D0CDB7DEB71A8219821B820FB619
S1134150F8940F9280914008815080934008809198
S11341604008882309F077C080913308882309F434
S113417072C049C08091250890912608FC0186816F
S113418097819A83898389819A810C960E942B1145
S113419089819A8102960E942B1189819A81FC015E
S11341A0968980913608891730F489819A81FC01B7
S11341B086898093360889819A81AC014E5F5F4F6E
S11341C089819A81FC018689282F30E0C901880FF2
S11341D0991F880F991F880F991F820F931F8A5167
S11341E0984FBA010E94641089819A81FC01268942
S11341F08091E4079091E507FC018689281718F05F
S113420081E08093390880912008882309F0B2CF97
S113421089819A81892B11F00E9434258091380874
S11342208C838C81882379F00E944C21882319F097
S113423081E0809339088C8181508C838C81882320
S113424099F71092380880913908882321F081E089
S11342508B830E9460130F900FBE8B810F900F9081
S11342600F900F90DF91CF910895CF93DF9300D0FB
S1134270CDB7DEB70FB6F8940F92809134089091C1
S113428035089A8389830F900FBE89819A810F9094
S11342900F90DF91CF910895CF93DF93CDB7DEB721
S11342A029970FB6F894DEBF0FBECDBF1982809157
S11342B04008882309F0C8C08091340890913508DB
S11342C001969B838A838A819B819093350880938E
S11342D034088A819B81892BD9F480911C089091A0
S11342E01D089D838C8380911E0890911F089093D4
S11342F01D0880931C088C819D8190931F088093D6
S11343001E0880913A088F5F80933A080E943425F2
S113431080913C0890913D082A813B8128173907F8
S113432008F478C080911C0890911D08FC018081DC
S1134330882339F48FEF9FEF90933D0880933C08D6
S113434069C080911C0890911D08FC0185819681AB
S1134350FC01868197819F838E838E819F81FC01DE
S113436082819381998788872A813B818885998571
S11343702817390738F48885998590933D088093E8
S11343803C0848C08E819F8102960E942B118E8129
S11343909F81FC0184899589892B29F08E819F81D5
S11343A00C960E942B118E819F81FC01968980912D
S11343B03608891730F48E819F81FC0186898093A9
S11343C036088E819F81AC014E5F5F4F8E819F8145
S11343D0FC018689282F30E0C901880F991F880FB6
S11343E0991F880F991F820F931F8A51984FBA0102
S11343F00E9464108E819F81FC0126898091E407CC
S11344009091E507FC018689281708F48BCF81E099
S1134410898388CF8091E4079091E507FC01868920
S1134420282F30E0C901880F991F880F991F880F22
S1134430991F820F931F8A51984FFC01808182300B
S113444040F081E0898305C0809138088F5F8093B4
S1134450380880913908882311F081E089838981A3
S113446029960FB6F894DEBF0FBECDBFDF91CF9172
S11344700895CF93DF9300D000D000D0CDB7DEB73E
S11344809C838B837E836D838B819C81892B39F400
S11344908091E4079091E5079A83898304C08B8116
S11344A09C819A8389830FB6F8940F9289819A81AB
S11344B02D813E81FC0136A325A30F900FBE000081
S11344C026960FB6F894DEBF0FBECDBFDF91CF9115
S11344D00895CF93DF9300D01F92CDB7DEB78091BC
S11344E04008882321F081E08093390890C010921D
S11344F039088091E4079091E507FC0185A196A114
S11345000E94640F8091E4079091E507FC012081EB
S113451031818091E4079091E507FC018789908DB2
S11345208217930770F08091E4079091E5079C014E
S1134530275E3F4F8091E4079091E507B9010E94FF
S1134540740880913608898303C0898181508983E6
S11345508981282F30E0C901880F991F880F991F7E
S1134560880F991F820F931F8A51984FFC018081F5
S1134570882359F38981282F30E0C901880F991FB6
S1134580880F991F880F991F820F931F8A51984F84
S11345909B838A838A819B81FC0181819281FC01B6
S11345A0228133818A819B81FC01328321838A8128
S11345B09B81FC01218132818A819B81039628178A
S11345C0390769F48A819B81FC0181819281FC0114
S11345D0228133818A819B81FC01328321838A81F8
S11345E09B81FC0181819281FC018681978190935A
S11345F0E5078093E4078981809336088091E40776
S11346009091E507FC0185A196A10E943F0F00004F
S11346100F900F900F90DF91CF910895CF93DF9378
S113462000D000D0CDB7DEB79A8389837C836B83B7
S11346308091E4079091E5079C01245F3F4F8981B5
S11346409A81B9010E94B3108B819C8161E00E9420
S1134650922600000F900F900F900F90DF91CF9152
S11346600895CF93DF9300D000D01F92CDB7DEB76B
S11346709D838C838C819D81FC0185819681FC01C5
S1134680868197819B838A838A819B810C960E9471
S11346902B1180914008882369F58A819B810296B9
S11346A00E942B118A819B81FC0196898091360896
S11346B0891730F48A819B81FC01868980933608AE
S11346C08A819B81AC014E5F5F4F8A819B81FC0193
S11346D08689282F30E0C901880F991F880F991FF8
S11346E0880F991F820F931F8A51984FBA010E9415
S11346F0641008C08A819B810C96BC0180E298E01A
S11347000E9464108A819B81FC0126898091E407C0
S11347109091E507FC018689821730F481E0898352
S113472081E08093390801C0198289810F900F902C
S11347300F900F900F90DF91CF910895CF93DF9357
S113474000D0CDB7DEB79A83898320913A08898156
S11347509A81FC01208320913408309135088981A5
S11347609A81FC013283218300000F900F90DF9126
S1134770CF910895CF93DF93CDB7DEB727970FB6C8
S1134780F894DEBF0FBECDBF9D838C837F836E8381
S11347900FB6F8940F9280913408909135089B835A
S11347A08A838C819D81FC01908180913A089817BD
S11347B069F08C819D81FC01218132818A819B81F8
S11347C08217930718F081E0898330C08C819D8122
S11347D0FC01818192812A813B81281B390B8E81C6
S11347E09F81FC018081918128173907E8F48E812B
S11347F09F81FC01208131818C819D81FC0141815B
S113480052818A819B81BA01681B790BCB01280FE5
S1134810391F8E819F81FC01318320838C819D818E
S11348200E949E23198202C081E089830F900FBEEB
S1134830898127960FB6F894DEBF0FBECDBFDF91F6
S1134840CF910895CF93DF93CDB7DEB781E0809306
S113485039080000DF91CF910895CF93DF9300D002
S1134860CDB7DEB79A8389830E947D248091E607C1
S1134870823010F00E9460130E94D307F5CFCF93CB
S1134880DF931F92CDB7DEB7198213C08981282F19
S113489030E0C901880F991F880F991F880F991F4D
S11348A0820F931F8A51984F0E941C1089818F5F39
S11348B089838981843050F38AE098E00E941C1037
S11348C083E198E00E941C1080E298E00E941C1092
S11348D089E298E00E941C108AE098E090931D08F9
S11348E080931C0883E198E090931F0880931E082E
S11348F000000F90DF91CF910895CF93DF9300D004
S11349001F92CDB7DEB72FC00E9491209091290845
S113491081E0992309F080E089830E949E208981A7
S1134920882309F50FB6F8940F9280912E08909180
S11349302F08FC01868197819B838A838A819B81CE
S113494002960E942B118091330881508093330882
S1134950809132088150809332080F900FBE8A8173
S11349609B810E941C2580913208882369F60000EF
S11349700F900F900F90DF91CF910895CF93DF9315
S113498000D000D000D0CDB7DEB79E838D831982CE
S11349901A821B821C8210C08D819E8101969E8387
S11349A08D8389819A81AB81BC810196A11DB11D42
S11349B089839A83AB83BC838D819E81FC01808132
S11349C0853A51F389819A8126960FB6F894DEBF11
S11349D00FBECDBFDF91CF910895CF93DF93CDB7B5
S11349E0DEB727970FB6F894DEBF0FBECDBF9F8307
S11349F08E838E819F81892B29F48091E407909185
S1134A00E50702C08E819F819A83898389819A8177
S1134A10FC018789908D9C838B838B819C810E9470
S1134A20BE248D838D8127960FB6F894DEBF0FBE0A
S1134A30CDBFDF91CF910895CF93DF9300D0CDB751
S1134A40DEB79A83898389819A81FC018789908D55
S1134A500E94DF1789819A810E94DF1700000F905E
S1134A600F90DF91CF910895CF93DF9300D0CDB70E
S1134A70DEB780911C0890911D08FC018081882379
S1134A8039F48FEF9FEF90933D0880933C0815C055
S1134A9080911C0890911D08FC0185819681FC0180
S1134AA0868197819A83898389819A81FC01828195
S1134AB0938190933D0880933C0800000F900F90E1
S1134AC0DF91CF910895CF93DF9300D000D0CDB77D
S1134AD0DEB79C838B838B819C819A8389838B81B2
S1134AE09C81892B09F47FC089819A81FC012689E4
S1134AF08091E4079091E507FC018689281708F066
S1134B0072C089819A81FC018485958599238CF0F2
S1134B108091E4079091E507FC018689882F90E055
S1134B2024E030E0281B390B89819A81FC01358708
S1134B30248789819A81FC014285538589819A81E0
S1134B40FC018689282F30E0C901880F991F880F3E
S1134B50991F880F991F820F931F8A51984F4817E6
S1134B605907B9F589819A8102960E942B11809187
S1134B70E4079091E507FC01268989819A81FC016B
S1134B80268B89819A81FC01968980913608891740
S1134B9030F489819A81FC01868980933608898161
S1134BA09A81AC014E5F5F4F89819A81FC018689AD
S1134BB0282F30E0C901880F991F880F991F880F8B
S1134BC0991F820F931F8A51984FBA010E94641053
S1134BD00AC08091E4079091E507FC012689898148
S1134BE09A81FC01268B00000F900F900F900F907C
S1134BF0DF91CF910895CF93DF9300D000D01F921F
S1134C00CDB7DEB79D838C838C819D819B838A8302
S1134C1019828C819D81892B09F461C08A819B81D1
S1134C20FC0184A12FEF280F8A819B81FC0124A31E
S1134C308A819B81FC0126898A819B81FC0183A155
S1134C40281709F44CC08A819B81FC0184A1882324
S1134C5009F045C08A819B8102960E942B118A81AA
S1134C609B81FC0123A18A819B81FC01268B8A8183
S1134C709B81FC018689882F90E024E030E0281B8A
S1134C80390B8A819B81FC01358724878A819B812A
S1134C90FC01968980913608891730F48A819B81BA
S1134CA0FC018689809336088A819B81AC014E5F22
S1134CB05F4F8A819B81FC018689282F30E0C901DE
S1134CC0880F991F880F991F880F991F820F931FB0
S1134CD08A51984FBA010E94641081E089838981C6
S1134CE00F900F900F900F900F90DF91CF91089538
S1134CF0CF93DF93CDB7DEB78091E4079091E507BA
S1134D00892B49F08091E4079091E507FC0124A1E7
S1134D102F5FFC0124A38091E4079091E507DF91C4
S1134D20CF910895CF93DF93CDB7DEB727970FB612
S1134D30F894DEBF0FBECDBF9E838D836F838091B9
S1134D403408909135089A8389838091E40790917F
S1134D50E50702960E942B1129813A818D819E815B
S1134D60820F931F9C838B838091E4079091E507C6
S1134D702B813C81FC01338322832B813C818981FB
S1134D809A812817390778F48091E4079091E50710
S1134D909C012E5F3F4F80911E0890911F08B9011E
S1134DA00E94B3101DC08091E4079091E5079C0117
S1134DB02E5F3F4F80911C0890911D08B9010E94FD
S1134DC0B31080913C0890913D082B813C812817B9
S1134DD0390730F48B819C8190933D0880933C0883
S1134DE0000027960FB6F894DEBF0FBECDBFDF914B
S1134DF0CF91089597FB072E16F4009407D077FD02
S1134E0009D00E94302707FC05D03EF49095819587
S1134E109F4F0895709561957F4F0895A1E21A2ED2
S1134E20AA1BBB1BFD010DC0AA1FBB1FEE1FFF1F4A
S1134E30A217B307E407F50720F0A21BB30BE40B9A
S1134E40F50B661F771F881F991F1A9469F76095E1
S1134E507095809590959B01AC01BD01CF0108959B
S1134E60AA1BBB1B51E107C0AA1FBB1FA617B7078C
S1134E7010F0A61BB70B881F991F5A95A9F78095A8
S1134E809095BC01CD010895FB01DC0102C00190A5
S1134E900D9241505040D8F70895DC0101C06D9344
S1134EA041505040E0F70895FC0101900020E9F7DB
S1114EB0809590958E0F9F1F0895F894FFCF64
S1134EBE01FF0301031C023E007E00FE00FC01FE06
S1134ECE007E003E001C020103FF03000001C60029
S1134EDECE00770547616D652069732028726529B8
S1134EEE737461727465642100506C61796572200B
S1134EFE412061746520666F6F642100506C617986
S1134F0E657220422061746520666F6F64210050C3
S1134F1E6C61796572204220776F6E2100506C614E
S1134F2E796572204120776F6E2100736572696115
S1134F3E6C5F636F6D006A6F79737469636B00677E
S1114F4E616D655F72656E640049444C4500F8
S9030000FC
